{
  "address": "0x8242A0E9e2d876b04048ab84D3B835F7520a0BdD",
  "abi": [
    {
      "inputs": [
        {
          "internalType": "string",
          "name": "name",
          "type": "string"
        },
        {
          "internalType": "string",
          "name": "symbol",
          "type": "string"
        },
        {
          "internalType": "uint256",
          "name": "mintPrice",
          "type": "uint256"
        },
        {
          "internalType": "string",
          "name": "baseURI",
          "type": "string"
        }
      ],
      "stateMutability": "nonpayable",
      "type": "constructor"
    },
    {
      "anonymous": false,
      "inputs": [
        {
          "indexed": true,
          "internalType": "address",
          "name": "owner",
          "type": "address"
        },
        {
          "indexed": true,
          "internalType": "address",
          "name": "approved",
          "type": "address"
        },
        {
          "indexed": true,
          "internalType": "uint256",
          "name": "tokenId",
          "type": "uint256"
        }
      ],
      "name": "Approval",
      "type": "event"
    },
    {
      "anonymous": false,
      "inputs": [
        {
          "indexed": true,
          "internalType": "address",
          "name": "owner",
          "type": "address"
        },
        {
          "indexed": true,
          "internalType": "address",
          "name": "operator",
          "type": "address"
        },
        {
          "indexed": false,
          "internalType": "bool",
          "name": "approved",
          "type": "bool"
        }
      ],
      "name": "ApprovalForAll",
      "type": "event"
    },
    {
      "anonymous": false,
      "inputs": [
        {
          "indexed": true,
          "internalType": "address",
          "name": "previousOwner",
          "type": "address"
        },
        {
          "indexed": true,
          "internalType": "address",
          "name": "newOwner",
          "type": "address"
        }
      ],
      "name": "OwnershipTransferred",
      "type": "event"
    },
    {
      "anonymous": false,
      "inputs": [
        {
          "indexed": true,
          "internalType": "address",
          "name": "from",
          "type": "address"
        },
        {
          "indexed": true,
          "internalType": "address",
          "name": "to",
          "type": "address"
        },
        {
          "indexed": true,
          "internalType": "uint256",
          "name": "tokenId",
          "type": "uint256"
        }
      ],
      "name": "Transfer",
      "type": "event"
    },
    {
      "inputs": [],
      "name": "_host",
      "outputs": [
        {
          "internalType": "string",
          "name": "",
          "type": "string"
        }
      ],
      "stateMutability": "view",
      "type": "function"
    },
    {
      "inputs": [],
      "name": "_mintPrice",
      "outputs": [
        {
          "internalType": "uint256",
          "name": "",
          "type": "uint256"
        }
      ],
      "stateMutability": "view",
      "type": "function"
    },
    {
      "inputs": [
        {
          "internalType": "address",
          "name": "to",
          "type": "address"
        },
        {
          "internalType": "uint256",
          "name": "tokenId",
          "type": "uint256"
        }
      ],
      "name": "approve",
      "outputs": [],
      "stateMutability": "nonpayable",
      "type": "function"
    },
    {
      "inputs": [
        {
          "internalType": "address",
          "name": "owner",
          "type": "address"
        }
      ],
      "name": "balanceOf",
      "outputs": [
        {
          "internalType": "uint256",
          "name": "",
          "type": "uint256"
        }
      ],
      "stateMutability": "view",
      "type": "function"
    },
    {
      "inputs": [
        {
          "internalType": "uint256",
          "name": "tokenId",
          "type": "uint256"
        }
      ],
      "name": "getApproved",
      "outputs": [
        {
          "internalType": "address",
          "name": "",
          "type": "address"
        }
      ],
      "stateMutability": "view",
      "type": "function"
    },
    {
      "inputs": [],
      "name": "getBaseURI",
      "outputs": [
        {
          "internalType": "string",
          "name": "",
          "type": "string"
        }
      ],
      "stateMutability": "view",
      "type": "function"
    },
    {
      "inputs": [],
      "name": "getMintPrice",
      "outputs": [
        {
          "internalType": "uint256",
          "name": "",
          "type": "uint256"
        }
      ],
      "stateMutability": "view",
      "type": "function"
    },
    {
      "inputs": [
        {
          "internalType": "address",
          "name": "owner",
          "type": "address"
        },
        {
          "internalType": "address",
          "name": "operator",
          "type": "address"
        }
      ],
      "name": "isApprovedForAll",
      "outputs": [
        {
          "internalType": "bool",
          "name": "",
          "type": "bool"
        }
      ],
      "stateMutability": "view",
      "type": "function"
    },
    {
      "inputs": [],
      "name": "mint",
      "outputs": [
        {
          "internalType": "uint256",
          "name": "",
          "type": "uint256"
        }
      ],
      "stateMutability": "payable",
      "type": "function"
    },
    {
      "inputs": [],
      "name": "name",
      "outputs": [
        {
          "internalType": "string",
          "name": "",
          "type": "string"
        }
      ],
      "stateMutability": "view",
      "type": "function"
    },
    {
      "inputs": [],
      "name": "owner",
      "outputs": [
        {
          "internalType": "address",
          "name": "",
          "type": "address"
        }
      ],
      "stateMutability": "view",
      "type": "function"
    },
    {
      "inputs": [
        {
          "internalType": "uint256",
          "name": "tokenId",
          "type": "uint256"
        }
      ],
      "name": "ownerOf",
      "outputs": [
        {
          "internalType": "address",
          "name": "",
          "type": "address"
        }
      ],
      "stateMutability": "view",
      "type": "function"
    },
    {
      "inputs": [],
      "name": "renounceOwnership",
      "outputs": [],
      "stateMutability": "nonpayable",
      "type": "function"
    },
    {
      "inputs": [
        {
          "internalType": "address",
          "name": "from",
          "type": "address"
        },
        {
          "internalType": "address",
          "name": "to",
          "type": "address"
        },
        {
          "internalType": "uint256",
          "name": "tokenId",
          "type": "uint256"
        }
      ],
      "name": "safeTransferFrom",
      "outputs": [],
      "stateMutability": "nonpayable",
      "type": "function"
    },
    {
      "inputs": [
        {
          "internalType": "address",
          "name": "from",
          "type": "address"
        },
        {
          "internalType": "address",
          "name": "to",
          "type": "address"
        },
        {
          "internalType": "uint256",
          "name": "tokenId",
          "type": "uint256"
        },
        {
          "internalType": "bytes",
          "name": "data",
          "type": "bytes"
        }
      ],
      "name": "safeTransferFrom",
      "outputs": [],
      "stateMutability": "nonpayable",
      "type": "function"
    },
    {
      "inputs": [
        {
          "internalType": "address",
          "name": "operator",
          "type": "address"
        },
        {
          "internalType": "bool",
          "name": "approved",
          "type": "bool"
        }
      ],
      "name": "setApprovalForAll",
      "outputs": [],
      "stateMutability": "nonpayable",
      "type": "function"
    },
    {
      "inputs": [
        {
          "internalType": "string",
          "name": "baseURI",
          "type": "string"
        }
      ],
      "name": "setBaseURI",
      "outputs": [],
      "stateMutability": "nonpayable",
      "type": "function"
    },
    {
      "inputs": [
        {
          "internalType": "uint256",
          "name": "mintPrice",
          "type": "uint256"
        }
      ],
      "name": "setMintPrice",
      "outputs": [],
      "stateMutability": "nonpayable",
      "type": "function"
    },
    {
      "inputs": [
        {
          "internalType": "bytes4",
          "name": "interfaceId",
          "type": "bytes4"
        }
      ],
      "name": "supportsInterface",
      "outputs": [
        {
          "internalType": "bool",
          "name": "",
          "type": "bool"
        }
      ],
      "stateMutability": "view",
      "type": "function"
    },
    {
      "inputs": [],
      "name": "symbol",
      "outputs": [
        {
          "internalType": "string",
          "name": "",
          "type": "string"
        }
      ],
      "stateMutability": "view",
      "type": "function"
    },
    {
      "inputs": [
        {
          "internalType": "uint256",
          "name": "tokenId",
          "type": "uint256"
        }
      ],
      "name": "tokenURI",
      "outputs": [
        {
          "internalType": "string",
          "name": "",
          "type": "string"
        }
      ],
      "stateMutability": "view",
      "type": "function"
    },
    {
      "inputs": [],
      "name": "totalSupply",
      "outputs": [
        {
          "internalType": "uint256",
          "name": "",
          "type": "uint256"
        }
      ],
      "stateMutability": "view",
      "type": "function"
    },
    {
      "inputs": [
        {
          "internalType": "address",
          "name": "from",
          "type": "address"
        },
        {
          "internalType": "address",
          "name": "to",
          "type": "address"
        },
        {
          "internalType": "uint256",
          "name": "tokenId",
          "type": "uint256"
        }
      ],
      "name": "transferFrom",
      "outputs": [],
      "stateMutability": "nonpayable",
      "type": "function"
    },
    {
      "inputs": [
        {
          "internalType": "address",
          "name": "newOwner",
          "type": "address"
        }
      ],
      "name": "transferOwnership",
      "outputs": [],
      "stateMutability": "nonpayable",
      "type": "function"
    },
    {
      "inputs": [],
      "name": "withdraw",
      "outputs": [],
      "stateMutability": "nonpayable",
      "type": "function"
    }
  ],
  "transactionHash": "0xb31c7cbb7c5c9b0b41ffe52b1bc2e3304992f88ff70d521cea197b8b998fed1c",
  "args": [
    "SubgraphObserver",
    "SO",
    "1000000000000000000",
    "http//localhost:3000/"
  ],
  "numDeployments": 4,
  "solcInputHash": "901cb600f4ca7f3e54e5fe22941d4e92",
  "bytecode": "0x60806040523480156200001157600080fd5b506040516200389e3803806200389e83398181016040528101906200003791906200033e565b838381600090816200004a91906200064e565b5080600190816200005c91906200064e565b5050506200007f62000073620000a260201b60201c565b620000aa60201b60201c565b80600990816200009091906200064e565b50816008819055505050505062000735565b600033905090565b6000600660009054906101000a900473ffffffffffffffffffffffffffffffffffffffff16905081600660006101000a81548173ffffffffffffffffffffffffffffffffffffffff021916908373ffffffffffffffffffffffffffffffffffffffff1602179055508173ffffffffffffffffffffffffffffffffffffffff168173ffffffffffffffffffffffffffffffffffffffff167f8be0079c531659141344cd1fd0a4f28419497f9722a3daafe3b4186f6b6457e060405160405180910390a35050565b6000604051905090565b600080fd5b600080fd5b600080fd5b600080fd5b6000601f19601f8301169050919050565b7f4e487b7100000000000000000000000000000000000000000000000000000000600052604160045260246000fd5b620001d9826200018e565b810181811067ffffffffffffffff82111715620001fb57620001fa6200019f565b5b80604052505050565b60006200021062000170565b90506200021e8282620001ce565b919050565b600067ffffffffffffffff8211156200024157620002406200019f565b5b6200024c826200018e565b9050602081019050919050565b60005b83811015620002795780820151818401526020810190506200025c565b60008484015250505050565b60006200029c620002968462000223565b62000204565b905082815260208101848484011115620002bb57620002ba62000189565b5b620002c884828562000259565b509392505050565b600082601f830112620002e857620002e762000184565b5b8151620002fa84826020860162000285565b91505092915050565b6000819050919050565b620003188162000303565b81146200032457600080fd5b50565b60008151905062000338816200030d565b92915050565b600080600080608085870312156200035b576200035a6200017a565b5b600085015167ffffffffffffffff8111156200037c576200037b6200017f565b5b6200038a87828801620002d0565b945050602085015167ffffffffffffffff811115620003ae57620003ad6200017f565b5b620003bc87828801620002d0565b9350506040620003cf8782880162000327565b925050606085015167ffffffffffffffff811115620003f357620003f26200017f565b5b6200040187828801620002d0565b91505092959194509250565b600081519050919050565b7f4e487b7100000000000000000000000000000000000000000000000000000000600052602260045260246000fd5b600060028204905060018216806200046057607f821691505b60208210810362000476576200047562000418565b5b50919050565b60008190508160005260206000209050919050565b60006020601f8301049050919050565b600082821b905092915050565b600060088302620004e07fffffffffffffffffffffffffffffffffffffffffffffffffffffffffffffffff82620004a1565b620004ec8683620004a1565b95508019841693508086168417925050509392505050565b6000819050919050565b60006200052f62000529620005238462000303565b62000504565b62000303565b9050919050565b6000819050919050565b6200054b836200050e565b620005636200055a8262000536565b848454620004ae565b825550505050565b600090565b6200057a6200056b565b6200058781848462000540565b505050565b5b81811015620005af57620005a360008262000570565b6001810190506200058d565b5050565b601f821115620005fe57620005c8816200047c565b620005d38462000491565b81016020851015620005e3578190505b620005fb620005f28562000491565b8301826200058c565b50505b505050565b600082821c905092915050565b6000620006236000198460080262000603565b1980831691505092915050565b60006200063e838362000610565b9150826002028217905092915050565b62000659826200040d565b67ffffffffffffffff8111156200067557620006746200019f565b5b62000681825462000447565b6200068e828285620005b3565b600060209050601f831160018114620006c65760008415620006b1578287015190505b620006bd858262000630565b8655506200072d565b601f198416620006d6866200047c565b60005b828110156200070057848901518255600182019150602085019450602081019050620006d9565b868310156200072057848901516200071c601f89168262000610565b8355505b6001600288020188555050505b505050505050565b61315980620007456000396000f3fe6080604052600436106101665760003560e01c806370a08231116100d1578063a22cb4651161008a578063c87b56dd11610064578063c87b56dd146104f9578063e985e9c514610536578063f2fde38b14610573578063f4a0a5281461059c57610166565b8063a22cb4651461047c578063a7f93ebd146104a5578063b88d4fde146104d057610166565b806370a082311461037c578063714c5398146103b9578063715018a6146103e4578063852e5a0a146103fb5780638da5cb5b1461042657806395d89b411461045157610166565b806318160ddd1161012357806318160ddd1461028257806323b872dd146102ad5780633ccfd60b146102d657806342842e0e146102ed57806355f804b3146103165780636352211e1461033f57610166565b806301ffc9a71461016b5780630387da42146101a857806306fdde03146101d3578063081812fc146101fe578063095ea7b31461023b5780631249c58b14610264575b600080fd5b34801561017757600080fd5b50610192600480360381019061018d9190611f0c565b6105c5565b60405161019f9190611f54565b60405180910390f35b3480156101b457600080fd5b506101bd6106a7565b6040516101ca9190611f88565b60405180910390f35b3480156101df57600080fd5b506101e86106ad565b6040516101f59190612033565b60405180910390f35b34801561020a57600080fd5b5061022560048036038101906102209190612081565b61073f565b60405161023291906120ef565b60405180910390f35b34801561024757600080fd5b50610262600480360381019061025d9190612136565b610785565b005b61026c61089c565b6040516102799190611f88565b60405180910390f35b34801561028e57600080fd5b5061029761094d565b6040516102a49190611f88565b60405180910390f35b3480156102b957600080fd5b506102d460048036038101906102cf9190612176565b610953565b005b3480156102e257600080fd5b506102eb6109b3565b005b3480156102f957600080fd5b50610314600480360381019061030f9190612176565b610a11565b005b34801561032257600080fd5b5061033d600480360381019061033891906122fe565b610a31565b005b34801561034b57600080fd5b5061036660048036038101906103619190612081565b610a4c565b60405161037391906120ef565b60405180910390f35b34801561038857600080fd5b506103a3600480360381019061039e9190612347565b610ad2565b6040516103b09190611f88565b60405180910390f35b3480156103c557600080fd5b506103ce610b89565b6040516103db9190612033565b60405180910390f35b3480156103f057600080fd5b506103f9610c1b565b005b34801561040757600080fd5b50610410610c2f565b60405161041d9190612033565b60405180910390f35b34801561043257600080fd5b5061043b610cbd565b60405161044891906120ef565b60405180910390f35b34801561045d57600080fd5b50610466610ce7565b6040516104739190612033565b60405180910390f35b34801561048857600080fd5b506104a3600480360381019061049e91906123a0565b610d79565b005b3480156104b157600080fd5b506104ba610d8f565b6040516104c79190611f88565b60405180910390f35b3480156104dc57600080fd5b506104f760048036038101906104f29190612481565b610d99565b005b34801561050557600080fd5b50610520600480360381019061051b9190612081565b610dfb565b60405161052d9190612033565b60405180910390f35b34801561054257600080fd5b5061055d60048036038101906105589190612504565b610e63565b60405161056a9190611f54565b60405180910390f35b34801561057f57600080fd5b5061059a60048036038101906105959190612347565b610ef7565b005b3480156105a857600080fd5b506105c360048036038101906105be9190612081565b610f7a565b005b60007f80ac58cd000000000000000000000000000000000000000000000000000000007bffffffffffffffffffffffffffffffffffffffffffffffffffffffff1916827bffffffffffffffffffffffffffffffffffffffffffffffffffffffff1916148061069057507f5b5e139f000000000000000000000000000000000000000000000000000000007bffffffffffffffffffffffffffffffffffffffffffffffffffffffff1916827bffffffffffffffffffffffffffffffffffffffffffffffffffffffff1916145b806106a0575061069f82610f8c565b5b9050919050565b60085481565b6060600080546106bc90612573565b80601f01602080910402602001604051908101604052809291908181526020018280546106e890612573565b80156107355780601f1061070a57610100808354040283529160200191610735565b820191906000526020600020905b81548152906001019060200180831161071857829003601f168201915b5050505050905090565b600061074a82610ff6565b6004600083815260200190815260200160002060009054906101000a900473ffffffffffffffffffffffffffffffffffffffff169050919050565b600061079082610a4c565b90508073ffffffffffffffffffffffffffffffffffffffff168373ffffffffffffffffffffffffffffffffffffffff1603610800576040517f08c379a00000000000000000000000000000000000000000000000000000000081526004016107f790612616565b60405180910390fd5b8073ffffffffffffffffffffffffffffffffffffffff1661081f611041565b73ffffffffffffffffffffffffffffffffffffffff16148061084e575061084d81610848611041565b610e63565b5b61088d576040517f08c379a0000000000000000000000000000000000000000000000000000000008152600401610884906126a8565b60405180910390fd5b6108978383611049565b505050565b6000806007549050600760008154809291906108b7906126f7565b91905055506108c4610cbd565b73ffffffffffffffffffffffffffffffffffffffff163373ffffffffffffffffffffffffffffffffffffffff161461093c5760085434101561093b576040517f08c379a00000000000000000000000000000000000000000000000000000000081526004016109329061278b565b60405180910390fd5b5b6109463382611102565b8091505090565b60075481565b61096461095e611041565b8261131f565b6109a3576040517f08c379a000000000000000000000000000000000000000000000000000000000815260040161099a9061281d565b60405180910390fd5b6109ae8383836113b4565b505050565b6109bb6116ad565b60004790506109c8610cbd565b73ffffffffffffffffffffffffffffffffffffffff166108fc829081150290604051600060405180830381858888f19350505050158015610a0d573d6000803e3d6000fd5b5050565b610a2c83838360405180602001604052806000815250610d99565b505050565b610a396116ad565b8060099081610a4891906129e9565b5050565b600080610a588361172b565b9050600073ffffffffffffffffffffffffffffffffffffffff168173ffffffffffffffffffffffffffffffffffffffff1603610ac9576040517f08c379a0000000000000000000000000000000000000000000000000000000008152600401610ac090612b07565b60405180910390fd5b80915050919050565b60008073ffffffffffffffffffffffffffffffffffffffff168273ffffffffffffffffffffffffffffffffffffffff1603610b42576040517f08c379a0000000000000000000000000000000000000000000000000000000008152600401610b3990612b99565b60405180910390fd5b600360008373ffffffffffffffffffffffffffffffffffffffff1673ffffffffffffffffffffffffffffffffffffffff168152602001908152602001600020549050919050565b606060098054610b9890612573565b80601f0160208091040260200160405190810160405280929190818152602001828054610bc490612573565b8015610c115780601f10610be657610100808354040283529160200191610c11565b820191906000526020600020905b815481529060010190602001808311610bf457829003601f168201915b5050505050905090565b610c236116ad565b610c2d6000611768565b565b60098054610c3c90612573565b80601f0160208091040260200160405190810160405280929190818152602001828054610c6890612573565b8015610cb55780601f10610c8a57610100808354040283529160200191610cb5565b820191906000526020600020905b815481529060010190602001808311610c9857829003601f168201915b505050505081565b6000600660009054906101000a900473ffffffffffffffffffffffffffffffffffffffff16905090565b606060018054610cf690612573565b80601f0160208091040260200160405190810160405280929190818152602001828054610d2290612573565b8015610d6f5780601f10610d4457610100808354040283529160200191610d6f565b820191906000526020600020905b815481529060010190602001808311610d5257829003601f168201915b5050505050905090565b610d8b610d84611041565b838361182e565b5050565b6000600854905090565b610daa610da4611041565b8361131f565b610de9576040517f08c379a0000000000000000000000000000000000000000000000000000000008152600401610de09061281d565b60405180910390fd5b610df58484848461199a565b50505050565b6060610e0682610ff6565b6000610e106119f6565b90506000815111610e305760405180602001604052806000815250610e5b565b80610e3a84611a88565b604051602001610e4b929190612bf5565b6040516020818303038152906040525b915050919050565b6000600560008473ffffffffffffffffffffffffffffffffffffffff1673ffffffffffffffffffffffffffffffffffffffff16815260200190815260200160002060008373ffffffffffffffffffffffffffffffffffffffff1673ffffffffffffffffffffffffffffffffffffffff16815260200190815260200160002060009054906101000a900460ff16905092915050565b610eff6116ad565b600073ffffffffffffffffffffffffffffffffffffffff168173ffffffffffffffffffffffffffffffffffffffff1603610f6e576040517f08c379a0000000000000000000000000000000000000000000000000000000008152600401610f6590612c8b565b60405180910390fd5b610f7781611768565b50565b610f826116ad565b8060088190555050565b60007f01ffc9a7000000000000000000000000000000000000000000000000000000007bffffffffffffffffffffffffffffffffffffffffffffffffffffffff1916827bffffffffffffffffffffffffffffffffffffffffffffffffffffffff1916149050919050565b610fff81611b56565b61103e576040517f08c379a000000000000000000000000000000000000000000000000000000000815260040161103590612b07565b60405180910390fd5b50565b600033905090565b816004600083815260200190815260200160002060006101000a81548173ffffffffffffffffffffffffffffffffffffffff021916908373ffffffffffffffffffffffffffffffffffffffff160217905550808273ffffffffffffffffffffffffffffffffffffffff166110bc83610a4c565b73ffffffffffffffffffffffffffffffffffffffff167f8c5be1e5ebec7d5bd14f71427d1e84f3dd0314c0f7b2291e5b200ac8c7c3b92560405160405180910390a45050565b600073ffffffffffffffffffffffffffffffffffffffff168273ffffffffffffffffffffffffffffffffffffffff1603611171576040517f08c379a000000000000000000000000000000000000000000000000000000000815260040161116890612cf7565b60405180910390fd5b61117a81611b56565b156111ba576040517f08c379a00000000000000000000000000000000000000000000000000000000081526004016111b190612d63565b60405180910390fd5b6111c8600083836001611b97565b6111d181611b56565b15611211576040517f08c379a000000000000000000000000000000000000000000000000000000000815260040161120890612d63565b60405180910390fd5b6001600360008473ffffffffffffffffffffffffffffffffffffffff1673ffffffffffffffffffffffffffffffffffffffff16815260200190815260200160002060008282540192505081905550816002600083815260200190815260200160002060006101000a81548173ffffffffffffffffffffffffffffffffffffffff021916908373ffffffffffffffffffffffffffffffffffffffff160217905550808273ffffffffffffffffffffffffffffffffffffffff16600073ffffffffffffffffffffffffffffffffffffffff167fddf252ad1be2c89b69c2b068fc378daa952ba7f163c4a11628f55a4df523b3ef60405160405180910390a461131b600083836001611b9d565b5050565b60008061132b83610a4c565b90508073ffffffffffffffffffffffffffffffffffffffff168473ffffffffffffffffffffffffffffffffffffffff16148061136d575061136c8185610e63565b5b806113ab57508373ffffffffffffffffffffffffffffffffffffffff166113938461073f565b73ffffffffffffffffffffffffffffffffffffffff16145b91505092915050565b8273ffffffffffffffffffffffffffffffffffffffff166113d482610a4c565b73ffffffffffffffffffffffffffffffffffffffff161461142a576040517f08c379a000000000000000000000000000000000000000000000000000000000815260040161142190612df5565b60405180910390fd5b600073ffffffffffffffffffffffffffffffffffffffff168273ffffffffffffffffffffffffffffffffffffffff1603611499576040517f08c379a000000000000000000000000000000000000000000000000000000000815260040161149090612e87565b60405180910390fd5b6114a68383836001611b97565b8273ffffffffffffffffffffffffffffffffffffffff166114c682610a4c565b73ffffffffffffffffffffffffffffffffffffffff161461151c576040517f08c379a000000000000000000000000000000000000000000000000000000000815260040161151390612df5565b60405180910390fd5b6004600082815260200190815260200160002060006101000a81549073ffffffffffffffffffffffffffffffffffffffff02191690556001600360008573ffffffffffffffffffffffffffffffffffffffff1673ffffffffffffffffffffffffffffffffffffffff168152602001908152602001600020600082825403925050819055506001600360008473ffffffffffffffffffffffffffffffffffffffff1673ffffffffffffffffffffffffffffffffffffffff16815260200190815260200160002060008282540192505081905550816002600083815260200190815260200160002060006101000a81548173ffffffffffffffffffffffffffffffffffffffff021916908373ffffffffffffffffffffffffffffffffffffffff160217905550808273ffffffffffffffffffffffffffffffffffffffff168473ffffffffffffffffffffffffffffffffffffffff167fddf252ad1be2c89b69c2b068fc378daa952ba7f163c4a11628f55a4df523b3ef60405160405180910390a46116a88383836001611b9d565b505050565b6116b5611041565b73ffffffffffffffffffffffffffffffffffffffff166116d3610cbd565b73ffffffffffffffffffffffffffffffffffffffff1614611729576040517f08c379a000000000000000000000000000000000000000000000000000000000815260040161172090612ef3565b60405180910390fd5b565b60006002600083815260200190815260200160002060009054906101000a900473ffffffffffffffffffffffffffffffffffffffff169050919050565b6000600660009054906101000a900473ffffffffffffffffffffffffffffffffffffffff16905081600660006101000a81548173ffffffffffffffffffffffffffffffffffffffff021916908373ffffffffffffffffffffffffffffffffffffffff1602179055508173ffffffffffffffffffffffffffffffffffffffff168173ffffffffffffffffffffffffffffffffffffffff167f8be0079c531659141344cd1fd0a4f28419497f9722a3daafe3b4186f6b6457e060405160405180910390a35050565b8173ffffffffffffffffffffffffffffffffffffffff168373ffffffffffffffffffffffffffffffffffffffff160361189c576040517f08c379a000000000000000000000000000000000000000000000000000000000815260040161189390612f5f565b60405180910390fd5b80600560008573ffffffffffffffffffffffffffffffffffffffff1673ffffffffffffffffffffffffffffffffffffffff16815260200190815260200160002060008473ffffffffffffffffffffffffffffffffffffffff1673ffffffffffffffffffffffffffffffffffffffff16815260200190815260200160002060006101000a81548160ff0219169083151502179055508173ffffffffffffffffffffffffffffffffffffffff168373ffffffffffffffffffffffffffffffffffffffff167f17307eab39ab6107e8899845ad3d59bd9653f200f220920489ca2b5937696c318360405161198d9190611f54565b60405180910390a3505050565b6119a58484846113b4565b6119b184848484611ba3565b6119f0576040517f08c379a00000000000000000000000000000000000000000000000000000000081526004016119e790612ff1565b60405180910390fd5b50505050565b606060098054611a0590612573565b80601f0160208091040260200160405190810160405280929190818152602001828054611a3190612573565b8015611a7e5780601f10611a5357610100808354040283529160200191611a7e565b820191906000526020600020905b815481529060010190602001808311611a6157829003601f168201915b5050505050905090565b606060006001611a9784611d2a565b01905060008167ffffffffffffffff811115611ab657611ab56121d3565b5b6040519080825280601f01601f191660200182016040528015611ae85781602001600182028036833780820191505090505b509050600082602001820190505b600115611b4b578080600190039150507f3031323334353637383961626364656600000000000000000000000000000000600a86061a8153600a8581611b3f57611b3e613011565b5b04945060008503611af6575b819350505050919050565b60008073ffffffffffffffffffffffffffffffffffffffff16611b788361172b565b73ffffffffffffffffffffffffffffffffffffffff1614159050919050565b50505050565b50505050565b6000611bc48473ffffffffffffffffffffffffffffffffffffffff16611e7d565b15611d1d578373ffffffffffffffffffffffffffffffffffffffff1663150b7a02611bed611041565b8786866040518563ffffffff1660e01b8152600401611c0f9493929190613095565b6020604051808303816000875af1925050508015611c4b57506040513d601f19601f82011682018060405250810190611c4891906130f6565b60015b611ccd573d8060008114611c7b576040519150601f19603f3d011682016040523d82523d6000602084013e611c80565b606091505b506000815103611cc5576040517f08c379a0000000000000000000000000000000000000000000000000000000008152600401611cbc90612ff1565b60405180910390fd5b805181602001fd5b63150b7a0260e01b7bffffffffffffffffffffffffffffffffffffffffffffffffffffffff1916817bffffffffffffffffffffffffffffffffffffffffffffffffffffffff191614915050611d22565b600190505b949350505050565b600080600090507a184f03e93ff9f4daa797ed6e38ed64bf6a1f0100000000000000008310611d88577a184f03e93ff9f4daa797ed6e38ed64bf6a1f0100000000000000008381611d7e57611d7d613011565b5b0492506040810190505b6d04ee2d6d415b85acef81000000008310611dc5576d04ee2d6d415b85acef81000000008381611dbb57611dba613011565b5b0492506020810190505b662386f26fc100008310611df457662386f26fc100008381611dea57611de9613011565b5b0492506010810190505b6305f5e1008310611e1d576305f5e1008381611e1357611e12613011565b5b0492506008810190505b6127108310611e42576127108381611e3857611e37613011565b5b0492506004810190505b60648310611e655760648381611e5b57611e5a613011565b5b0492506002810190505b600a8310611e74576001810190505b80915050919050565b6000808273ffffffffffffffffffffffffffffffffffffffff163b119050919050565b6000604051905090565b600080fd5b600080fd5b60007fffffffff0000000000000000000000000000000000000000000000000000000082169050919050565b611ee981611eb4565b8114611ef457600080fd5b50565b600081359050611f0681611ee0565b92915050565b600060208284031215611f2257611f21611eaa565b5b6000611f3084828501611ef7565b91505092915050565b60008115159050919050565b611f4e81611f39565b82525050565b6000602082019050611f696000830184611f45565b92915050565b6000819050919050565b611f8281611f6f565b82525050565b6000602082019050611f9d6000830184611f79565b92915050565b600081519050919050565b600082825260208201905092915050565b60005b83811015611fdd578082015181840152602081019050611fc2565b60008484015250505050565b6000601f19601f8301169050919050565b600061200582611fa3565b61200f8185611fae565b935061201f818560208601611fbf565b61202881611fe9565b840191505092915050565b6000602082019050818103600083015261204d8184611ffa565b905092915050565b61205e81611f6f565b811461206957600080fd5b50565b60008135905061207b81612055565b92915050565b60006020828403121561209757612096611eaa565b5b60006120a58482850161206c565b91505092915050565b600073ffffffffffffffffffffffffffffffffffffffff82169050919050565b60006120d9826120ae565b9050919050565b6120e9816120ce565b82525050565b600060208201905061210460008301846120e0565b92915050565b612113816120ce565b811461211e57600080fd5b50565b6000813590506121308161210a565b92915050565b6000806040838503121561214d5761214c611eaa565b5b600061215b85828601612121565b925050602061216c8582860161206c565b9150509250929050565b60008060006060848603121561218f5761218e611eaa565b5b600061219d86828701612121565b93505060206121ae86828701612121565b92505060406121bf8682870161206c565b9150509250925092565b600080fd5b600080fd5b7f4e487b7100000000000000000000000000000000000000000000000000000000600052604160045260246000fd5b61220b82611fe9565b810181811067ffffffffffffffff8211171561222a576122296121d3565b5b80604052505050565b600061223d611ea0565b90506122498282612202565b919050565b600067ffffffffffffffff821115612269576122686121d3565b5b61227282611fe9565b9050602081019050919050565b82818337600083830152505050565b60006122a161229c8461224e565b612233565b9050828152602081018484840111156122bd576122bc6121ce565b5b6122c884828561227f565b509392505050565b600082601f8301126122e5576122e46121c9565b5b81356122f584826020860161228e565b91505092915050565b60006020828403121561231457612313611eaa565b5b600082013567ffffffffffffffff81111561233257612331611eaf565b5b61233e848285016122d0565b91505092915050565b60006020828403121561235d5761235c611eaa565b5b600061236b84828501612121565b91505092915050565b61237d81611f39565b811461238857600080fd5b50565b60008135905061239a81612374565b92915050565b600080604083850312156123b7576123b6611eaa565b5b60006123c585828601612121565b92505060206123d68582860161238b565b9150509250929050565b600067ffffffffffffffff8211156123fb576123fa6121d3565b5b61240482611fe9565b9050602081019050919050565b600061242461241f846123e0565b612233565b9050828152602081018484840111156124405761243f6121ce565b5b61244b84828561227f565b509392505050565b600082601f830112612468576124676121c9565b5b8135612478848260208601612411565b91505092915050565b6000806000806080858703121561249b5761249a611eaa565b5b60006124a987828801612121565b94505060206124ba87828801612121565b93505060406124cb8782880161206c565b925050606085013567ffffffffffffffff8111156124ec576124eb611eaf565b5b6124f887828801612453565b91505092959194509250565b6000806040838503121561251b5761251a611eaa565b5b600061252985828601612121565b925050602061253a85828601612121565b9150509250929050565b7f4e487b7100000000000000000000000000000000000000000000000000000000600052602260045260246000fd5b6000600282049050600182168061258b57607f821691505b60208210810361259e5761259d612544565b5b50919050565b7f4552433732313a20617070726f76616c20746f2063757272656e74206f776e6560008201527f7200000000000000000000000000000000000000000000000000000000000000602082015250565b6000612600602183611fae565b915061260b826125a4565b604082019050919050565b6000602082019050818103600083015261262f816125f3565b9050919050565b7f4552433732313a20617070726f76652063616c6c6572206973206e6f7420746f60008201527f6b656e206f776e6572206f7220617070726f76656420666f7220616c6c000000602082015250565b6000612692603d83611fae565b915061269d82612636565b604082019050919050565b600060208201905081810360008301526126c181612685565b9050919050565b7f4e487b7100000000000000000000000000000000000000000000000000000000600052601160045260246000fd5b600061270282611f6f565b91507fffffffffffffffffffffffffffffffffffffffffffffffffffffffffffffffff8203612734576127336126c8565b5b600182019050919050565b7f4d696e74696e67207265717569726573207061796d656e740000000000000000600082015250565b6000612775601883611fae565b91506127808261273f565b602082019050919050565b600060208201905081810360008301526127a481612768565b9050919050565b7f4552433732313a2063616c6c6572206973206e6f7420746f6b656e206f776e6560008201527f72206f7220617070726f76656400000000000000000000000000000000000000602082015250565b6000612807602d83611fae565b9150612812826127ab565b604082019050919050565b60006020820190508181036000830152612836816127fa565b9050919050565b60008190508160005260206000209050919050565b60006020601f8301049050919050565b600082821b905092915050565b60006008830261289f7fffffffffffffffffffffffffffffffffffffffffffffffffffffffffffffffff82612862565b6128a98683612862565b95508019841693508086168417925050509392505050565b6000819050919050565b60006128e66128e16128dc84611f6f565b6128c1565b611f6f565b9050919050565b6000819050919050565b612900836128cb565b61291461290c826128ed565b84845461286f565b825550505050565b600090565b61292961291c565b6129348184846128f7565b505050565b5b818110156129585761294d600082612921565b60018101905061293a565b5050565b601f82111561299d5761296e8161283d565b61297784612852565b81016020851015612986578190505b61299a61299285612852565b830182612939565b50505b505050565b600082821c905092915050565b60006129c0600019846008026129a2565b1980831691505092915050565b60006129d983836129af565b9150826002028217905092915050565b6129f282611fa3565b67ffffffffffffffff811115612a0b57612a0a6121d3565b5b612a158254612573565b612a2082828561295c565b600060209050601f831160018114612a535760008415612a41578287015190505b612a4b85826129cd565b865550612ab3565b601f198416612a618661283d565b60005b82811015612a8957848901518255600182019150602085019450602081019050612a64565b86831015612aa65784890151612aa2601f8916826129af565b8355505b6001600288020188555050505b505050505050565b7f4552433732313a20696e76616c696420746f6b656e2049440000000000000000600082015250565b6000612af1601883611fae565b9150612afc82612abb565b602082019050919050565b60006020820190508181036000830152612b2081612ae4565b9050919050565b7f4552433732313a2061646472657373207a65726f206973206e6f74206120766160008201527f6c6964206f776e65720000000000000000000000000000000000000000000000602082015250565b6000612b83602983611fae565b9150612b8e82612b27565b604082019050919050565b60006020820190508181036000830152612bb281612b76565b9050919050565b600081905092915050565b6000612bcf82611fa3565b612bd98185612bb9565b9350612be9818560208601611fbf565b80840191505092915050565b6000612c018285612bc4565b9150612c0d8284612bc4565b91508190509392505050565b7f4f776e61626c653a206e6577206f776e657220697320746865207a65726f206160008201527f6464726573730000000000000000000000000000000000000000000000000000602082015250565b6000612c75602683611fae565b9150612c8082612c19565b604082019050919050565b60006020820190508181036000830152612ca481612c68565b9050919050565b7f4552433732313a206d696e7420746f20746865207a65726f2061646472657373600082015250565b6000612ce1602083611fae565b9150612cec82612cab565b602082019050919050565b60006020820190508181036000830152612d1081612cd4565b9050919050565b7f4552433732313a20746f6b656e20616c7265616479206d696e74656400000000600082015250565b6000612d4d601c83611fae565b9150612d5882612d17565b602082019050919050565b60006020820190508181036000830152612d7c81612d40565b9050919050565b7f4552433732313a207472616e736665722066726f6d20696e636f72726563742060008201527f6f776e6572000000000000000000000000000000000000000000000000000000602082015250565b6000612ddf602583611fae565b9150612dea82612d83565b604082019050919050565b60006020820190508181036000830152612e0e81612dd2565b9050919050565b7f4552433732313a207472616e7366657220746f20746865207a65726f2061646460008201527f7265737300000000000000000000000000000000000000000000000000000000602082015250565b6000612e71602483611fae565b9150612e7c82612e15565b604082019050919050565b60006020820190508181036000830152612ea081612e64565b9050919050565b7f4f776e61626c653a2063616c6c6572206973206e6f7420746865206f776e6572600082015250565b6000612edd602083611fae565b9150612ee882612ea7565b602082019050919050565b60006020820190508181036000830152612f0c81612ed0565b9050919050565b7f4552433732313a20617070726f766520746f2063616c6c657200000000000000600082015250565b6000612f49601983611fae565b9150612f5482612f13565b602082019050919050565b60006020820190508181036000830152612f7881612f3c565b9050919050565b7f4552433732313a207472616e7366657220746f206e6f6e20455243373231526560008201527f63656976657220696d706c656d656e7465720000000000000000000000000000602082015250565b6000612fdb603283611fae565b9150612fe682612f7f565b604082019050919050565b6000602082019050818103600083015261300a81612fce565b9050919050565b7f4e487b7100000000000000000000000000000000000000000000000000000000600052601260045260246000fd5b600081519050919050565b600082825260208201905092915050565b600061306782613040565b613071818561304b565b9350613081818560208601611fbf565b61308a81611fe9565b840191505092915050565b60006080820190506130aa60008301876120e0565b6130b760208301866120e0565b6130c46040830185611f79565b81810360608301526130d6818461305c565b905095945050505050565b6000815190506130f081611ee0565b92915050565b60006020828403121561310c5761310b611eaa565b5b600061311a848285016130e1565b9150509291505056fea26469706673582212203aa76601d6ed826fe438fb9923868e9371eccc1f5fe3a58a030af790d9de4baa64736f6c63430008120033",
  "devdoc": {
    "events": {
      "Approval(address,address,uint256)": {
        "details": "Emitted when `owner` enables `approved` to manage the `tokenId` token."
      },
      "ApprovalForAll(address,address,bool)": {
        "details": "Emitted when `owner` enables or disables (`approved`) `operator` to manage all of its assets."
      },
      "Transfer(address,address,uint256)": {
        "details": "Emitted when `tokenId` token is transferred from `from` to `to`."
      }
    },
    "kind": "dev",
    "methods": {
      "approve(address,uint256)": {
        "details": "See {IERC721-approve}."
      },
      "balanceOf(address)": {
        "details": "See {IERC721-balanceOf}."
      },
      "getApproved(uint256)": {
        "details": "See {IERC721-getApproved}."
      },
      "isApprovedForAll(address,address)": {
        "details": "See {IERC721-isApprovedForAll}."
      },
      "name()": {
        "details": "See {IERC721Metadata-name}."
      },
      "owner()": {
        "details": "Returns the address of the current owner."
      },
      "ownerOf(uint256)": {
        "details": "See {IERC721-ownerOf}."
      },
      "renounceOwnership()": {
        "details": "Leaves the contract without owner. It will not be possible to call `onlyOwner` functions anymore. Can only be called by the current owner. NOTE: Renouncing ownership will leave the contract without an owner, thereby removing any functionality that is only available to the owner."
      },
      "safeTransferFrom(address,address,uint256)": {
        "details": "See {IERC721-safeTransferFrom}."
      },
      "safeTransferFrom(address,address,uint256,bytes)": {
        "details": "See {IERC721-safeTransferFrom}."
      },
      "setApprovalForAll(address,bool)": {
        "details": "See {IERC721-setApprovalForAll}."
      },
      "supportsInterface(bytes4)": {
        "details": "See {IERC165-supportsInterface}."
      },
      "symbol()": {
        "details": "See {IERC721Metadata-symbol}."
      },
      "tokenURI(uint256)": {
        "details": "See {IERC721Metadata-tokenURI}."
      },
      "transferFrom(address,address,uint256)": {
        "details": "See {IERC721-transferFrom}."
      },
      "transferOwnership(address)": {
        "details": "Transfers ownership of the contract to a new account (`newOwner`). Can only be called by the current owner."
      }
    },
    "version": 1
  },
  "userdoc": {
    "kind": "user",
    "methods": {},
    "version": 1
  },
  "storageLayout": {
    "storage": [
      {
        "astId": 138,
        "contract": "contracts/ERC721SO.sol:ERC721SO",
        "label": "_name",
        "offset": 0,
        "slot": "0",
        "type": "t_string_storage"
      },
      {
        "astId": 140,
        "contract": "contracts/ERC721SO.sol:ERC721SO",
        "label": "_symbol",
        "offset": 0,
        "slot": "1",
        "type": "t_string_storage"
      },
      {
        "astId": 144,
        "contract": "contracts/ERC721SO.sol:ERC721SO",
        "label": "_owners",
        "offset": 0,
        "slot": "2",
        "type": "t_mapping(t_uint256,t_address)"
      },
      {
        "astId": 148,
        "contract": "contracts/ERC721SO.sol:ERC721SO",
        "label": "_balances",
        "offset": 0,
        "slot": "3",
        "type": "t_mapping(t_address,t_uint256)"
      },
      {
        "astId": 152,
        "contract": "contracts/ERC721SO.sol:ERC721SO",
        "label": "_tokenApprovals",
        "offset": 0,
        "slot": "4",
        "type": "t_mapping(t_uint256,t_address)"
      },
      {
        "astId": 158,
        "contract": "contracts/ERC721SO.sol:ERC721SO",
        "label": "_operatorApprovals",
        "offset": 0,
        "slot": "5",
        "type": "t_mapping(t_address,t_mapping(t_address,t_bool))"
      },
      {
        "astId": 7,
        "contract": "contracts/ERC721SO.sol:ERC721SO",
        "label": "_owner",
        "offset": 0,
        "slot": "6",
        "type": "t_address"
      },
      {
        "astId": 2638,
        "contract": "contracts/ERC721SO.sol:ERC721SO",
        "label": "totalSupply",
        "offset": 0,
        "slot": "7",
        "type": "t_uint256"
      },
      {
        "astId": 2640,
        "contract": "contracts/ERC721SO.sol:ERC721SO",
        "label": "_mintPrice",
        "offset": 0,
        "slot": "8",
        "type": "t_uint256"
      },
      {
        "astId": 2642,
        "contract": "contracts/ERC721SO.sol:ERC721SO",
        "label": "_host",
        "offset": 0,
        "slot": "9",
        "type": "t_string_storage"
      }
    ],
    "types": {
      "t_address": {
        "encoding": "inplace",
        "label": "address",
        "numberOfBytes": "20"
      },
      "t_bool": {
        "encoding": "inplace",
        "label": "bool",
        "numberOfBytes": "1"
      },
      "t_mapping(t_address,t_bool)": {
        "encoding": "mapping",
        "key": "t_address",
        "label": "mapping(address => bool)",
        "numberOfBytes": "32",
        "value": "t_bool"
      },
      "t_mapping(t_address,t_mapping(t_address,t_bool))": {
        "encoding": "mapping",
        "key": "t_address",
        "label": "mapping(address => mapping(address => bool))",
        "numberOfBytes": "32",
        "value": "t_mapping(t_address,t_bool)"
      },
      "t_mapping(t_address,t_uint256)": {
        "encoding": "mapping",
        "key": "t_address",
        "label": "mapping(address => uint256)",
        "numberOfBytes": "32",
        "value": "t_uint256"
      },
      "t_mapping(t_uint256,t_address)": {
        "encoding": "mapping",
        "key": "t_uint256",
        "label": "mapping(uint256 => address)",
        "numberOfBytes": "32",
        "value": "t_address"
      },
      "t_string_storage": {
        "encoding": "bytes",
        "label": "string",
        "numberOfBytes": "32"
      },
      "t_uint256": {
        "encoding": "inplace",
        "label": "uint256",
        "numberOfBytes": "32"
      }
    }
  }
}